{
  "contractName": "TestERC721",
  "abi": [
    {
      "anonymous": false,
      "inputs": [
        {
          "indexed": true,
          "internalType": "address",
          "name": "owner",
          "type": "address"
        },
        {
          "indexed": true,
          "internalType": "address",
          "name": "approved",
          "type": "address"
        },
        {
          "indexed": true,
          "internalType": "uint256",
          "name": "tokenId",
          "type": "uint256"
        }
      ],
      "name": "Approval",
      "type": "event"
    },
    {
      "anonymous": false,
      "inputs": [
        {
          "indexed": true,
          "internalType": "address",
          "name": "owner",
          "type": "address"
        },
        {
          "indexed": true,
          "internalType": "address",
          "name": "operator",
          "type": "address"
        },
        {
          "indexed": false,
          "internalType": "bool",
          "name": "approved",
          "type": "bool"
        }
      ],
      "name": "ApprovalForAll",
      "type": "event"
    },
    {
      "anonymous": false,
      "inputs": [
        {
          "indexed": true,
          "internalType": "address",
          "name": "from",
          "type": "address"
        },
        {
          "indexed": true,
          "internalType": "address",
          "name": "to",
          "type": "address"
        },
        {
          "indexed": true,
          "internalType": "uint256",
          "name": "tokenId",
          "type": "uint256"
        }
      ],
      "name": "Transfer",
      "type": "event"
    },
    {
      "inputs": [
        {
          "internalType": "address",
          "name": "to",
          "type": "address"
        },
        {
          "internalType": "uint256",
          "name": "tokenId",
          "type": "uint256"
        }
      ],
      "name": "approve",
      "outputs": [],
      "stateMutability": "nonpayable",
      "type": "function"
    },
    {
      "inputs": [
        {
          "internalType": "address",
          "name": "owner",
          "type": "address"
        }
      ],
      "name": "balanceOf",
      "outputs": [
        {
          "internalType": "uint256",
          "name": "",
          "type": "uint256"
        }
      ],
      "stateMutability": "view",
      "type": "function"
    },
    {
      "inputs": [],
      "name": "baseURI",
      "outputs": [
        {
          "internalType": "string",
          "name": "",
          "type": "string"
        }
      ],
      "stateMutability": "view",
      "type": "function"
    },
    {
      "inputs": [
        {
          "internalType": "uint256",
          "name": "tokenId",
          "type": "uint256"
        }
      ],
      "name": "getApproved",
      "outputs": [
        {
          "internalType": "address",
          "name": "",
          "type": "address"
        }
      ],
      "stateMutability": "view",
      "type": "function"
    },
    {
      "inputs": [
        {
          "internalType": "address",
          "name": "owner",
          "type": "address"
        },
        {
          "internalType": "address",
          "name": "operator",
          "type": "address"
        }
      ],
      "name": "isApprovedForAll",
      "outputs": [
        {
          "internalType": "bool",
          "name": "",
          "type": "bool"
        }
      ],
      "stateMutability": "view",
      "type": "function"
    },
    {
      "inputs": [],
      "name": "name",
      "outputs": [
        {
          "internalType": "string",
          "name": "",
          "type": "string"
        }
      ],
      "stateMutability": "view",
      "type": "function"
    },
    {
      "inputs": [
        {
          "internalType": "uint256",
          "name": "tokenId",
          "type": "uint256"
        }
      ],
      "name": "ownerOf",
      "outputs": [
        {
          "internalType": "address",
          "name": "",
          "type": "address"
        }
      ],
      "stateMutability": "view",
      "type": "function"
    },
    {
      "inputs": [
        {
          "internalType": "address",
          "name": "from",
          "type": "address"
        },
        {
          "internalType": "address",
          "name": "to",
          "type": "address"
        },
        {
          "internalType": "uint256",
          "name": "tokenId",
          "type": "uint256"
        }
      ],
      "name": "safeTransferFrom",
      "outputs": [],
      "stateMutability": "nonpayable",
      "type": "function"
    },
    {
      "inputs": [
        {
          "internalType": "address",
          "name": "from",
          "type": "address"
        },
        {
          "internalType": "address",
          "name": "to",
          "type": "address"
        },
        {
          "internalType": "uint256",
          "name": "tokenId",
          "type": "uint256"
        },
        {
          "internalType": "bytes",
          "name": "_data",
          "type": "bytes"
        }
      ],
      "name": "safeTransferFrom",
      "outputs": [],
      "stateMutability": "nonpayable",
      "type": "function"
    },
    {
      "inputs": [
        {
          "internalType": "address",
          "name": "operator",
          "type": "address"
        },
        {
          "internalType": "bool",
          "name": "approved",
          "type": "bool"
        }
      ],
      "name": "setApprovalForAll",
      "outputs": [],
      "stateMutability": "nonpayable",
      "type": "function"
    },
    {
      "inputs": [
        {
          "internalType": "bytes4",
          "name": "interfaceId",
          "type": "bytes4"
        }
      ],
      "name": "supportsInterface",
      "outputs": [
        {
          "internalType": "bool",
          "name": "",
          "type": "bool"
        }
      ],
      "stateMutability": "view",
      "type": "function"
    },
    {
      "inputs": [],
      "name": "symbol",
      "outputs": [
        {
          "internalType": "string",
          "name": "",
          "type": "string"
        }
      ],
      "stateMutability": "view",
      "type": "function"
    },
    {
      "inputs": [
        {
          "internalType": "uint256",
          "name": "index",
          "type": "uint256"
        }
      ],
      "name": "tokenByIndex",
      "outputs": [
        {
          "internalType": "uint256",
          "name": "",
          "type": "uint256"
        }
      ],
      "stateMutability": "view",
      "type": "function"
    },
    {
      "inputs": [
        {
          "internalType": "address",
          "name": "owner",
          "type": "address"
        },
        {
          "internalType": "uint256",
          "name": "index",
          "type": "uint256"
        }
      ],
      "name": "tokenOfOwnerByIndex",
      "outputs": [
        {
          "internalType": "uint256",
          "name": "",
          "type": "uint256"
        }
      ],
      "stateMutability": "view",
      "type": "function"
    },
    {
      "inputs": [
        {
          "internalType": "uint256",
          "name": "tokenId",
          "type": "uint256"
        }
      ],
      "name": "tokenURI",
      "outputs": [
        {
          "internalType": "string",
          "name": "",
          "type": "string"
        }
      ],
      "stateMutability": "view",
      "type": "function"
    },
    {
      "inputs": [],
      "name": "totalSupply",
      "outputs": [
        {
          "internalType": "uint256",
          "name": "",
          "type": "uint256"
        }
      ],
      "stateMutability": "view",
      "type": "function"
    },
    {
      "inputs": [
        {
          "internalType": "address",
          "name": "from",
          "type": "address"
        },
        {
          "internalType": "address",
          "name": "to",
          "type": "address"
        },
        {
          "internalType": "uint256",
          "name": "tokenId",
          "type": "uint256"
        }
      ],
      "name": "transferFrom",
      "outputs": [],
      "stateMutability": "nonpayable",
      "type": "function"
    },
    {
      "inputs": [],
      "name": "initialize",
      "outputs": [],
      "stateMutability": "nonpayable",
      "type": "function"
    },
    {
      "inputs": [
        {
          "internalType": "uint256",
          "name": "id",
          "type": "uint256"
        }
      ],
      "name": "mint",
      "outputs": [],
      "stateMutability": "nonpayable",
      "type": "function"
    }
  ],
  "bytecode": "0x608060405234801561001057600080fd5b50611e60806100206000396000f3fe608060405234801561001057600080fd5b50600436106101215760003560e01c80636352211e116100ad578063a0712d6811610071578063a0712d681461036f578063a22cb4651461038c578063b88d4fde146103ba578063c87b56dd14610480578063e985e9c51461049d57610121565b80636352211e146103145780636c0360eb1461033157806370a08231146103395780638129fc1c1461035f57806395d89b411461036757610121565b806318160ddd116100f457806318160ddd1461024557806323b872dd1461025f5780632f745c591461029557806342842e0e146102c15780634f6ccce7146102f757610121565b806301ffc9a71461012657806306fdde0314610161578063081812fc146101de578063095ea7b314610217575b600080fd5b61014d6004803603602081101561013c57600080fd5b50356001600160e01b0319166104cb565b604080519115158252519081900360200190f35b6101696104ee565b6040805160208082528351818301528351919283929083019185019080838360005b838110156101a357818101518382015260200161018b565b50505050905090810190601f1680156101d05780820380516001836020036101000a031916815260200191505b509250505060405180910390f35b6101fb600480360360208110156101f457600080fd5b5035610584565b604080516001600160a01b039092168252519081900360200190f35b6102436004803603604081101561022d57600080fd5b506001600160a01b0381351690602001356105e6565b005b61024d6106c1565b60408051918252519081900360200190f35b6102436004803603606081101561027557600080fd5b506001600160a01b038135811691602081013590911690604001356106d2565b61024d600480360360408110156102ab57600080fd5b506001600160a01b038135169060200135610729565b610243600480360360608110156102d757600080fd5b506001600160a01b03813581169160208101359091169060400135610754565b61024d6004803603602081101561030d57600080fd5b503561076f565b6101fb6004803603602081101561032a57600080fd5b5035610785565b6101696107ad565b61024d6004803603602081101561034f57600080fd5b50356001600160a01b031661080e565b610243610876565b61016961095a565b6102436004803603602081101561038557600080fd5b50356109bb565b610243600480360360408110156103a257600080fd5b506001600160a01b03813516906020013515156109c5565b610243600480360360808110156103d057600080fd5b6001600160a01b0382358116926020810135909116916040820135919081019060808101606082013564010000000081111561040b57600080fd5b82018360208201111561041d57600080fd5b8035906020019184600183028401116401000000008311171561043f57600080fd5b91908080601f016020809104026020016040519081016040528093929190818152602001838380828437600092019190915250929550610aca945050505050565b6101696004803603602081101561049657600080fd5b5035610b28565b61014d600480360360408110156104b357600080fd5b506001600160a01b0381358116916020013516610dab565b6001600160e01b0319811660009081526033602052604090205460ff165b919050565b606a8054604080516020601f600260001961010060018816150201909516949094049384018190048102820181019092528281526060939092909183018282801561057a5780601f1061054f5761010080835404028352916020019161057a565b820191906000526020600020905b81548152906001019060200180831161055d57829003601f168201915b5050505050905090565b600061058f82610dd9565b6105ca5760405162461bcd60e51b815260040180806020018281038252602c815260200180611d55602c913960400191505060405180910390fd5b506000908152606860205260409020546001600160a01b031690565b60006105f182610785565b9050806001600160a01b0316836001600160a01b031614156106445760405162461bcd60e51b8152600401808060200182810382526021815260200180611dd96021913960400191505060405180910390fd5b806001600160a01b0316610656610de6565b6001600160a01b03161480610677575061067781610672610de6565b610dab565b6106b25760405162461bcd60e51b8152600401808060200182810382526038815260200180611c7a6038913960400191505060405180910390fd5b6106bc8383610dea565b505050565b60006106cd6066610e65565b905090565b6106e36106dd610de6565b82610e70565b61071e5760405162461bcd60e51b8152600401808060200182810382526031815260200180611dfa6031913960400191505060405180910390fd5b6106bc838383610f14565b6001600160a01b038216600090815260656020526040812061074b9083611060565b90505b92915050565b6106bc83838360405180602001604052806000815250610aca565b60008061077d60668461106c565b509392505050565b600061074e82604051806060016040528060298152602001611cdc6029913960669190611088565b606d8054604080516020601f600260001961010060018816150201909516949094049384018190048102820181019092528281526060939092909183018282801561057a5780601f1061054f5761010080835404028352916020019161057a565b60006001600160a01b0382166108555760405162461bcd60e51b815260040180806020018281038252602a815260200180611cb2602a913960400191505060405180910390fd5b6001600160a01b038216600090815260656020526040902061074e90610e65565b600054610100900460ff168061088f575061088f61109f565b8061089d575060005460ff16155b6108d85760405162461bcd60e51b815260040180806020018281038252602e815260200180611d05602e913960400191505060405180910390fd5b600054610100900460ff16158015610903576000805460ff1961ff0019909116610100171660011790555b6109456040518060400160405280600481526020016315195cdd60e21b81525060405180604001604052806004815260200163151154d560e21b8152506110b0565b8015610957576000805461ff00191690555b50565b606b8054604080516020601f600260001961010060018816150201909516949094049384018190048102820181019092528281526060939092909183018282801561057a5780601f1061054f5761010080835404028352916020019161057a565b61095733826111ab565b6109cd610de6565b6001600160a01b0316826001600160a01b03161415610a33576040805162461bcd60e51b815260206004820152601960248201527f4552433732313a20617070726f766520746f2063616c6c657200000000000000604482015290519081900360640190fd5b8060696000610a40610de6565b6001600160a01b03908116825260208083019390935260409182016000908120918716808252919093529120805460ff191692151592909217909155610a84610de6565b6001600160a01b03167f17307eab39ab6107e8899845ad3d59bd9653f200f220920489ca2b5937696c318360405180821515815260200191505060405180910390a35050565b610adb610ad5610de6565b83610e70565b610b165760405162461bcd60e51b8152600401808060200182810382526031815260200180611dfa6031913960400191505060405180910390fd5b610b22848484846112d9565b50505050565b6060610b3382610dd9565b610b6e5760405162461bcd60e51b815260040180806020018281038252602f815260200180611daa602f913960400191505060405180910390fd5b6000828152606c602090815260409182902080548351601f6002600019610100600186161502019093169290920491820184900484028101840190945280845260609392830182828015610c035780601f10610bd857610100808354040283529160200191610c03565b820191906000526020600020905b815481529060010190602001808311610be657829003601f168201915b505050505090506060610c146107ad565b9050805160001415610c28575090506104e9565b815115610ce95780826040516020018083805190602001908083835b60208310610c635780518252601f199092019160209182019101610c44565b51815160209384036101000a600019018019909216911617905285519190930192850191508083835b60208310610cab5780518252601f199092019160209182019101610c8c565b6001836020036101000a03801982511681845116808217855250505050505090500192505050604051602081830303815290604052925050506104e9565b80610cf38561132b565b6040516020018083805190602001908083835b60208310610d255780518252601f199092019160209182019101610d06565b51815160209384036101000a600019018019909216911617905285519190930192850191508083835b60208310610d6d5780518252601f199092019160209182019101610d4e565b6001836020036101000a0380198251168184511680821785525050505050509050019250505060405160208183030381529060405292505050919050565b6001600160a01b03918216600090815260696020908152604080832093909416825291909152205460ff1690565b600061074e60668361141e565b3390565b6000818152606860205260409020805473ffffffffffffffffffffffffffffffffffffffff19166001600160a01b0384169081179091558190610e2c82610785565b6001600160a01b03167f8c5be1e5ebec7d5bd14f71427d1e84f3dd0314c0f7b2291e5b200ac8c7c3b92560405160405180910390a45050565b600061074e8261142a565b6000610e7b82610dd9565b610eb65760405162461bcd60e51b815260040180806020018281038252602c815260200180611c4e602c913960400191505060405180910390fd5b6000610ec183610785565b9050806001600160a01b0316846001600160a01b03161480610efc5750836001600160a01b0316610ef184610584565b6001600160a01b0316145b80610f0c5750610f0c8185610dab565b949350505050565b826001600160a01b0316610f2782610785565b6001600160a01b031614610f6c5760405162461bcd60e51b8152600401808060200182810382526029815260200180611d816029913960400191505060405180910390fd5b6001600160a01b038216610fb15760405162461bcd60e51b8152600401808060200182810382526024815260200180611c2a6024913960400191505060405180910390fd5b610fbc8383836106bc565b610fc7600082610dea565b6001600160a01b0383166000908152606560205260409020610fe9908261142e565b506001600160a01b038216600090815260656020526040902061100c908261143a565b5061101960668284611446565b5080826001600160a01b0316846001600160a01b03167fddf252ad1be2c89b69c2b068fc378daa952ba7f163c4a11628f55a4df523b3ef60405160405180910390a4505050565b600061074b838361145c565b600080808061107b86866114c0565b9097909650945050505050565b600061109584848461153b565b90505b9392505050565b60006110aa30611605565b15905090565b600054610100900460ff16806110c957506110c961109f565b806110d7575060005460ff16155b6111125760405162461bcd60e51b815260040180806020018281038252602e815260200180611d05602e913960400191505060405180910390fd5b600054610100900460ff1615801561113d576000805460ff1961ff0019909116610100171660011790555b825161115090606a906020860190611b42565b50815161116490606b906020850190611b42565b506111756380ac58cd60e01b61160b565b611185635b5e139f60e01b61160b565b61119563780e9d6360e01b61160b565b80156106bc576000805461ff0019169055505050565b6001600160a01b038216611206576040805162461bcd60e51b815260206004820181905260248201527f4552433732313a206d696e7420746f20746865207a65726f2061646472657373604482015290519081900360640190fd5b61120f81610dd9565b15611261576040805162461bcd60e51b815260206004820152601c60248201527f4552433732313a20746f6b656e20616c7265616479206d696e74656400000000604482015290519081900360640190fd5b61126d600083836106bc565b6001600160a01b038216600090815260656020526040902061128f908261143a565b5061129c60668284611446565b5060405181906001600160a01b038416906000907fddf252ad1be2c89b69c2b068fc378daa952ba7f163c4a11628f55a4df523b3ef908290a45050565b6112e4848484610f14565b6112f08484848461168f565b610b225760405162461bcd60e51b8152600401808060200182810382526032815260200180611bf86032913960400191505060405180910390fd5b60608161135057506040805180820190915260018152600360fc1b60208201526104e9565b8160005b811561136857600101600a82049150611354565b60608167ffffffffffffffff8111801561138157600080fd5b506040519080825280601f01601f1916602001820160405280156113ac576020820181803683370190505b50859350905060001982015b831561141557600a840660300160f81b828280600190039350815181106113db57fe5b60200101907effffffffffffffffffffffffffffffffffffffffffffffffffffffffffffff1916908160001a905350600a840493506113b8565b50949350505050565b600061074b83836117f7565b5490565b600061074b838361180f565b600061074b83836118d5565b600061109584846001600160a01b03851661191f565b8154600090821061149e5760405162461bcd60e51b8152600401808060200182810382526022815260200180611bd66022913960400191505060405180910390fd5b8260000182815481106114ad57fe5b9060005260206000200154905092915050565b8154600090819083106115045760405162461bcd60e51b8152600401808060200182810382526022815260200180611d336022913960400191505060405180910390fd5b600084600001848154811061151557fe5b906000526020600020906002020190508060000154816001015492509250509250929050565b600082815260018401602052604081205482816115d65760405162461bcd60e51b81526004018080602001828103825283818151815260200191508051906020019080838360005b8381101561159b578181015183820152602001611583565b50505050905090810190601f1680156115c85780820380516001836020036101000a031916815260200191505b509250505060405180910390fd5b508460000160018203815481106115e957fe5b9060005260206000209060020201600101549150509392505050565b3b151590565b6001600160e01b0319808216141561166a576040805162461bcd60e51b815260206004820152601c60248201527f4552433136353a20696e76616c696420696e7465726661636520696400000000604482015290519081900360640190fd5b6001600160e01b0319166000908152603360205260409020805460ff19166001179055565b60006116a3846001600160a01b0316611605565b6116af57506001610f0c565b60606117bd630a85bd0160e11b6116c4610de6565b88878760405160240180856001600160a01b03168152602001846001600160a01b0316815260200183815260200180602001828103825283818151815260200191508051906020019080838360005b8381101561172b578181015183820152602001611713565b50505050905090810190601f1680156117585780820380516001836020036101000a031916815260200191505b5095505050505050604051602081830303815290604052906001600160e01b0319166020820180516001600160e01b038381831617835250505050604051806060016040528060328152602001611bf8603291396001600160a01b03881691906119b6565b905060008180602001905160208110156117d657600080fd5b50516001600160e01b031916630a85bd0160e11b1492505050949350505050565b60009081526001919091016020526040902054151590565b600081815260018301602052604081205480156118cb578354600019808301919081019060009087908390811061184257fe5b906000526020600020015490508087600001848154811061185f57fe5b60009182526020808320909101929092558281526001898101909252604090209084019055865487908061188f57fe5b6001900381819060005260206000200160009055905586600101600087815260200190815260200160002060009055600194505050505061074e565b600091505061074e565b60006118e183836117f7565b6119175750815460018181018455600084815260208082209093018490558454848252828601909352604090209190915561074e565b50600061074e565b600082815260018401602052604081205480611984575050604080518082018252838152602080820184815286546001818101895560008981528481209551600290930290950191825591519082015586548684528188019092529290912055611098565b8285600001600183038154811061199757fe5b9060005260206000209060020201600101819055506000915050611098565b60606110958484600085856119ca85611605565b611a1b576040805162461bcd60e51b815260206004820152601d60248201527f416464726573733a2063616c6c20746f206e6f6e2d636f6e7472616374000000604482015290519081900360640190fd5b60006060866001600160a01b031685876040518082805190602001908083835b60208310611a5a5780518252601f199092019160209182019101611a3b565b6001836020036101000a03801982511681845116808217855250505050505090500191505060006040518083038185875af1925050503d8060008114611abc576040519150601f19603f3d011682016040523d82523d6000602084013e611ac1565b606091505b5091509150611ad1828286611adc565b979650505050505050565b60608315611aeb575081611098565b825115611afb5782518084602001fd5b60405162461bcd60e51b815260206004820181815284516024840152845185939192839260440191908501908083836000831561159b578181015183820152602001611583565b828054600181600116156101000203166002900490600052602060002090601f016020900481019282601f10611b8357805160ff1916838001178555611bb0565b82800160010185558215611bb0579182015b82811115611bb0578251825591602001919060010190611b95565b50611bbc929150611bc0565b5090565b5b80821115611bbc5760008155600101611bc156fe456e756d657261626c655365743a20696e646578206f7574206f6620626f756e64734552433732313a207472616e7366657220746f206e6f6e20455243373231526563656976657220696d706c656d656e7465724552433732313a207472616e7366657220746f20746865207a65726f20616464726573734552433732313a206f70657261746f7220717565727920666f72206e6f6e6578697374656e7420746f6b656e4552433732313a20617070726f76652063616c6c6572206973206e6f74206f776e6572206e6f7220617070726f76656420666f7220616c6c4552433732313a2062616c616e636520717565727920666f7220746865207a65726f20616464726573734552433732313a206f776e657220717565727920666f72206e6f6e6578697374656e7420746f6b656e496e697469616c697a61626c653a20636f6e747261637420697320616c726561647920696e697469616c697a6564456e756d657261626c654d61703a20696e646578206f7574206f6620626f756e64734552433732313a20617070726f76656420717565727920666f72206e6f6e6578697374656e7420746f6b656e4552433732313a207472616e73666572206f6620746f6b656e2074686174206973206e6f74206f776e4552433732314d657461646174613a2055524920717565727920666f72206e6f6e6578697374656e7420746f6b656e4552433732313a20617070726f76616c20746f2063757272656e74206f776e65724552433732313a207472616e736665722063616c6c6572206973206e6f74206f776e6572206e6f7220617070726f766564a2646970667358221220cc8e50615761f811f4f60b88568ac7934abb9a124294aa6259532305a275590164736f6c634300060c0033",
  "immutableReferences": {},
  "source": "pragma solidity 0.6.12;\n// Copyright 2020 Keyko GmbH.\n// SPDX-License-Identifier: (Apache-2.0 AND CC-BY-4.0)\n// Code is Apache-2.0 and docs are CC-BY-4.0\n\nimport '@openzeppelin/contracts-upgradeable/token/ERC721/ERC721Upgradeable.sol';\n\ncontract TestERC721 is ERC721Upgradeable {\n\n    function initialize() public initializer {\n        __ERC721_init_unchained('Test', 'TEST');\n    }\n\n    function mint(uint256 id) public {\n        _mint(msg.sender, id);\n    }\n\n}\n",
  "sourcePath": "/home/aitor/Projects/Nevermined/contracts/contracts/test/TestERC721.sol",
  "compiler": {
    "name": "solc",
    "version": "0.6.12+commit.27d51765.Emscripten.clang"
  },
  "schemaVersion": "3.3.4",
  "updatedAt": "2021-10-14T15:41:14.577Z",
  "devdoc": {
    "kind": "dev",
    "methods": {
      "approve(address,uint256)": {
        "details": "See {IERC721-approve}."
      },
      "balanceOf(address)": {
        "details": "See {IERC721-balanceOf}."
      },
      "baseURI()": {
        "details": "Returns the base URI set via {_setBaseURI}. This will be automatically added as a prefix in {tokenURI} to each token's URI, or to the token ID if no specific URI is set for that token ID."
      },
      "getApproved(uint256)": {
        "details": "See {IERC721-getApproved}."
      },
      "isApprovedForAll(address,address)": {
        "details": "See {IERC721-isApprovedForAll}."
      },
      "name()": {
        "details": "See {IERC721Metadata-name}."
      },
      "ownerOf(uint256)": {
        "details": "See {IERC721-ownerOf}."
      },
      "safeTransferFrom(address,address,uint256)": {
        "details": "See {IERC721-safeTransferFrom}."
      },
      "safeTransferFrom(address,address,uint256,bytes)": {
        "details": "See {IERC721-safeTransferFrom}."
      },
      "setApprovalForAll(address,bool)": {
        "details": "See {IERC721-setApprovalForAll}."
      },
      "supportsInterface(bytes4)": {
        "details": "See {IERC165-supportsInterface}. Time complexity O(1), guaranteed to always use less than 30 000 gas."
      },
      "symbol()": {
        "details": "See {IERC721Metadata-symbol}."
      },
      "tokenByIndex(uint256)": {
        "details": "See {IERC721Enumerable-tokenByIndex}."
      },
      "tokenOfOwnerByIndex(address,uint256)": {
        "details": "See {IERC721Enumerable-tokenOfOwnerByIndex}."
      },
      "tokenURI(uint256)": {
        "details": "See {IERC721Metadata-tokenURI}."
      },
      "totalSupply()": {
        "details": "See {IERC721Enumerable-totalSupply}."
      },
      "transferFrom(address,address,uint256)": {
        "details": "See {IERC721-transferFrom}."
      }
    },
    "version": 1
  },
  "userdoc": {
    "kind": "user",
    "methods": {},
    "version": 1
  }
}